:100003007FF47E011202407FC47E091201A47FF4B3
:100013007E011202687FC47E091201A47F787E05E7
:100023001203167FC47E091201A47F787E05120392
:10003300167FC47E091201A47F787E051203337FE5
:10004300C47E091201A47F787E051203337FC47E28
:10005300091201A47F787E051203507FC47E091222
:1000630001A47F787E051203167FC47E091201A4C2
:100073007FE87E031202687FF47E011202407FC490
:100083007E091201A47FF47E011202687FC47E09F7
:100093001201A47F787E051203167FC47E09120124
:1000A300A47F787E051203167FC47E091201A47F04
:1000B300787E051203337FC47E091201A47F787E04
:1000C300051203337FC47E091201A47F787E0512D3
:1000D30003507FC47E091201A47FC47E0912031654
:1000E3007FC47E091201A47FF47E011202407FC403
:1000F3007E091201A47FF47E011202687FC47E0987
:100103001201A47F787E051203167FC47E091201B3
:10011300A47F787E051203167FC47E091201A47F93
:10012300787E051203337FC47E091201A47F787E93
:10013300051203337FC47E091201A47F787E051262
:1001430003507FC47E091201A47F787E0512031633
:100153007FC47E091201A47FE87E031202687FF444
:100163007E011202407FC47E091201A47FF47E0146
:100173001202687FC47E091201A47F787E051203F0
:10018300167FC47E091201A47F787E051203167FB1
:10019300C47E091201A47F787E051203337FC47ED7
:0101A3000952
:0B01A400EF1FAC0670011E4C70F6222D
:04028500AB07AA0613
:10028900900000D3E5829BE5839A500CB2957F607C
:080299007E001201A4A380EB1A
:0102A100223A
:0402A200AB07AA06F6
:1002A600900000D3E5829BE5839A500CB2957F556A
:0802B6007E001201A4A380EBFD
:0102BE00221D
:0402BF00AB07AA06D9
:1002C300900000D3E5829BE5839A500CB2957F4C56
:0802D3007E001201A4A380EBE0
:0102DB002200
:0402DC00AB07AA06BC
:1002E000900000D3E5829BE5839A500CB2957F483D
:0802F0007E001201A4A380EBC3
:0102F80022E3
:0B025D007FE87E031203167FE87E039B
:04026800AB07AA0630
:10026C00900000D3E5829BE5839A500CB2957F40B9
:08027C007E001201A4A380EB37
:010284002257
:100212007FE87E0312036D7FE87E031203507FE8BE
:100222007E031203167FB07E041202407FE87E0333
:0E0232001203167FE87E031203337FE87E037B
:04024000AB07AA0658
:10024400900000D3E5829BE5839A500CB2957F39E8
:080254007E001201A4A380EB5F
:01025C00227F
:0402F900AB07AA069F
:1002FD00900000D3E5829BE5839A500CB2957F3335
:08030D007E001201A4A380EBA5
:0103150022C5
:04031600AB07AA0681
:10031A00900000D3E5829BE5839A500CB2957F301A
:08032A007E001201A4A380EB88
:0103320022A8
:04033300AB07AA0664
:10033700900000D3E5829BE5839A500CB2957F2B02
:080347007E001201A4A380EB6B
:01034F00228B
:04035000AB07AA0647
:10035400900000D3E5829BE5839A500CB2957F26EA
:080364007E001201A4A380EB4E
:01036C00226E
:04036D00AB07AA062A
:10037100900000D3E5829BE5839A500CB2957F24CF
:080381007E001201A4A380EB31
:010389002251
:04038A00AB07AA060D
:10038E00900000D3E5829BE5839A500CB2957F20B6
:08039E007E001201A4A380EB14
:0103A6002234
:0403A700AB07AA06F0
:1003AB00900000D3E5829BE5839A500CB2957F1C9D
:0803BB007E001201A4A380EBF7
:0103C3002217
:0403C400AB07AA06D3
:1003C800900000D3E5829BE5839A500CB2957F1983
:0803D8007E001201A4A380EBDA
:0103E00022FA
:0403E100AB07AA06B6
:1003E500900000D3E5829BE5839A500CB2957FC0BF
:0803F5007E001201A4A380EBBD
:0103FD0022DD
:0403FE00AB07AA0699
:10040200900000D3E5829BE5839A500CB2957FAAB7
:080412007E001201A4A380EB9F
:01041A0022BF
:04041B00AB07AA067B
:10041F00900000D3E5829BE5839A500CB2957F98AC
:08042F007E001201A4A380EB82
:0104370022A2
:04043800AB07AA065E
:10043C00900000D3E5829BE5839A500CB2957F8F98
:08044C007E001201A4A380EB65
:010454002285
:04045500AB07AA0641
:10045900900000D3E5829BE5839A500CB2957F808A
:080469007E001201A4A380EB48
:010471002268
:04047200AB07AA0624
:10047600900000D3E5829BE5839A500CB2957F727B
:080486007E001201A4A380EB2B
:01048E00224B
:04048F00AB07AA0607
:10049300900000D3E5829BE5839A500CB2957F666A
:0804A3007E001201A4A380EB0E
:0104AB00222E
:0404AC00AB07AA06EA
:1004B000900000D3E5829BE5839A500CB2957F8132
:0804C0007E011201A4A380EBF0
:0104C8002211
:0404C900AB07AA06CD
:1004CD00900000D3E5829BE5839A500CB2957F5442
:0804DD007E011201A4A380EBD3
:0104E50022F4
:0404E600AB07AA06B0
:1004EA00900000D3E5829BE5839A500CB2957F2F4A
:0804FA007E011201A4A380EBB6
:0105020022D6
:04050300AB07AA0692
:10050700900000D3E5829BE5839A500CB2957F1E3D
:080517007E011201A4A380EB98
:01051F0022B9
:04052000AB07AA0675
:10052400900000D3E5829BE5839A500CB2957FFF3F
:080534007E001201A4A380EB7C
:01053C00229C
:04053D00AB07AA0658
:10054100900000D3E5829BE5839A500CB2957FE33E
:080551007E001201A4A380EB5F
:01055900227F
:04055A00AB07AA063B
:10055E00900000D3E5829BE5839A500CB2957FCA3A
:08056E007E001201A4A380EB42
:010576002262
:1001AF001200037FC47E091203167F507EC3120113
:1001BF00A41200037FC47E091203167F507EC31260
:1001CF0001A41202127FDC7E051201A412025D123D
:1001DF00023C7F787E051203161202127FAC7E0D51
:1001EF001203161201A012021212025D12023C1229
:1001FF00025D7FE87E031203167F147E051202A2B2
:03020F000201AF3A
:030000000205777F
:0C057700787FE4F6D8FD7581070201AF23
:00000001FF
