:100602003F065B4F666D7D077F6F777C395E797140
:0106120000E7
:1005E800020E0000020C00000110000411000000BF
:0905F80000C10004150000000020
:1004CD00E4FFEFB40800504D9004DCF828287302C7
:1004DD0004F40204F802050002050402050C0205ED
:1004ED001002051802051CD2A28002C2A2D2A3D20C
:1004FD00A48022D2A28002C2A2C2A3D2A48016D20C
:10050D00A28002C2A2D2A3C2A4800AD2A28002C239
:10051D00A2C2A3C2A474152FF8E6F5807D0A7C0053
:10052D00ED1DAA0470011C4A70F6E4F5800FEF640E
:03053D0008708FB4
:010540002298
:0B000E00EF1FAC0670011E4C70F622C4
:0405C700AB07AA06CE
:1005CB00900000B2957C007D64AF03AE021201E394
:0C05DB0012000EA3E5826465458370E702
:0105E70022F1
:10032500AF8CEFFEAD8A7C00E42DF50FEC3EF50EAB
:10033500AF0FFE1205C7E4F58CF58A850F0B850E08
:100345000AF509F508AC0EAD0F1201297B7B7A146D
:10035500792E783E12001E1201628F148E138D12B3
:100365008C11E47FA07E0FFDFCAB14AA13A912A883
:1003750011C3120314500330000FC20075153F75E9
:10038500165075175075187922E47B107A27F9F8FD
:10039500AF14AE13AD12AC11120274AC00AD01AEC8
:1003A50002AF03E47BE87A03F9F812027474022FB2
:1003B500F58274063EF583E493F515E47BE87A034C
:1003C500F9F8AF14AE13AD12AC11120274AC00AD56
:1003D50001AE02AF03E47B64FAF9F8120274740209
:1003E5002FF58274063EF583E493F516E47B64FAF3
:1003F500F9F8AF14AE13AD12AC11120274AC00AD26
:1004050001AE02AF03E47B0AFAF9F8120274740232
:100415002FF58274063EF583E493F517E47B0AFA1B
:10042500F9F8AF14AE13AD12AC1112027474022BAD
:0C043500F58274063AF583E493F5182272
:03000B00020003ED
:03000300D20032F6
:03001B000205419A
:10054100C0E0C083C082C0D075D000C000C002C06E
:1005510004C005C007758DF8758B301204CD050DEB
:10056100E50D7002050CC39464E50C9400401F7501
:100571000C00750D00D2A100000000000000000079
:10058100000000000000000000000000C2A1D00730
:10059100D005D004D002D000D0D0D082D083D0E01A
:0105A1003227
:1005A200758911E4F58CF58A758DF8758B30D2A9B1
:1005B200D2ABD28ED2AF30A0FDD28C20A0FDC28CA5
:0505C20012032580F189
:10001E00EC4D6011E8497017ED33EC3304600DE4DC
:10002E00FCFFFEFD22E933E8330470F80201CE1224
:10003E00019958046009E4CC248150062850090225
:10004E0001D82840030201D5C0E0EB4A7044B980C4
:10005E0006D0E0FB0201C4EF4E701CBD8008EBFF22
:10006E00EAFEE9FD80EBE98DF0A4FEE5F002010762
:10007E00E9CDF9EAFEEBFFEF89F0A4FCE5F0CE89BD
:10008E00F0A42EFFE435F0CD89F0A42DFEE435F07A
:10009E008067EF4E7005BD80D780C3EF8BF0A4ACA8
:1000AE00F0EE8BF0A42CFCE435F0F8EF8AF0A42CE3
:1000BE00E5F038FCE433CB8DF0A42CFCE5F03BF8F6
:1000CE00EE8AF0A42CFCE5F038F8E433CF89F0A4E6
:1000DE002CFCE5F038CF3400CE89F0A42FFFE5F0EC
:1000EE003EFEE433C98DF0A42EFEE5F039CD8AF044
:1000FE00A42FFFE5F03EFEE43DFD33D0E0FB5007BC
:10010E000BBB000F0201D8EC2CFCEF33FFEE33FEDD
:06011E00ED33FD0201B00B
:1001240075F020800E75F010800575F0087D007E56
:10013400007F003392D530D503120306EC33401010
:10014400EF33FFEE33FEED33FDEC33FCD5F0ED225F
:0E015400E5F0247EA2D513CC92E7CDCEFF229B
:10016200EDD2E7CD33EC3392D524814006E4FFFE95
:10017200FDFC22FCE4CFCECDCC24E0501174FF80F4
:10018200EDC3CC13CCCD13CDCE13CECF13CF047091
:07019200F030D5DE02030688
:10019900E9D2E7C933E833F892D5EDD2E7CD33ECAC
:0701A90033FC5002B2D52225
:1001B000EC30E7100FBF000C0EBE00080DBD0004B0
:1001C0000BEB6014A2D5EB13FCED92E7FD2274FF5C
:1001D000FCFDFEFF22E480F8A2D574FF13FC7D80B5
:0301E000E480EFC9
:03000000020441B6
:0C044100787FE4F6D8FD75812002048865
:1001E300BC000BBE0029EF8DF084FFADF022E4CC00
:1001F300F875F008EF2FFFEE33FEEC33FCEE9DECC9
:10020300984005FCEE9DFE0FD5F0E9E4CEFD22ED0E
:10021300F8F5F0EE8420D21CFEADF075F008EF2F58
:10022300FFED33FD4007985006D5F0F222C398FD49
:050233000FD5F0EA22E6
:1002380075F008758200EF2FFFEE33FECD33CDCC7D
:1002480033CCC58233C5829BED9AEC99E582984000
:100258000CF582EE9BFEED9AFDEC99FC0FD5F0D6DD
:10026800E4CEFBE4CDFAE4CCF9A88222B800C1B907
:100278000059BA002DEC8BF084CFCECDFCE5F0CB45
:10028800F97818EF2FFFEE33FEED33FDEC33FCEB7E
:1002980033FB10D703994004EB99FB0FD8E5E4F939
:1002A800FA227818EF2FFFEE33FEED33FDEC33FC26
:1002B800C933C910D7059BE99A4007EC9BFCE99A1A
:1002C800F90FD8E0E4C9FAE4CCFB2275F010EF2F5F
:1002D800FFEE33FEED33FDCC33CCC833C810D7075F
:1002E8009BEC9AE899400AED9BFDEC9AFCE899F89A
:0E02F8000FD5F0DAE4CDFBE4CCFAE4C8F9222D
:0E030600C3E49FFFE49EFEE49DFDE49CFC2208
:10031400EB9FF5F0EA9E42F0E99D42F0E89C45F03F
:0103240022B6
:10044D000205A2E493A3F8E493A34003F68001F21E
:10045D0008DFF48029E493A3F85407240CC8C333B0
:10046D00C4540F4420C8834004F456800146F6DF7F
:10047D00E4800B01020408102040809005E8E47E22
:10048D00019360BCA3FF543F30E509541FFEE49374
:10049D00A360010ECF54C025E060A840B8E493A33B
:1004AD00FAE493A3F8E493A3C8C582C8CAC583CA66
:1004BD00F0A3C8C582C8CAC583CADFE9DEE780BE1E
:0106010000F8
:00000001FF
