:08011B00AF0BAE0AAD09AC0800
:100123008F1B8E1A8D198C18781874FF1200CCEC63
:060133004D4E4F70F32257
:0800EA008F178E168D158C1482
:1000F200900000AF82AE83E4FCFDAB17AA16A915EF
:10010200A814D31200B44010B2957F0A7E007D007D
:080112007C00120123A380DB35
:01011A0022C2
:10000300E4750BB8750A0BF509F508750F64F50E61
:10001300F50DF50C75132C751201F511F510C3E5EB
:100023000B950FF50BE50A950EF50AE509950DF508
:1000330009E508950CF50875A0FE12011BE4FBAF5A
:10004300A07801EF08800123D8FDF5A012011B0B56
:10005300BB07EC75A0FFAF13AE12AD11AC101200CD
:10006300EAE47FE87E03FDFCAB0BAA0AA909A80812
:10007300D31200B4500AE4750F28F50EF50DF50CF4
:10008300E47F2C7E01FDFCAB0BAA0AA909A808D3C7
:100093001200B45089E4F5A0B2957F0AFEFDFC126C
:1000A3000123B2957F057E007D007C001201238031
:0100B300E468
:03000000020139C1
:0C013900787FE4F6D8FD75811B020003FE
:1000B400EB9FF5F0EA9E42F0E99D42F0EC6480C8C3
:0600C40064809845F02263
:1000CA007401FF3395E0FEFDFC080808E6CF2FF621
:1000DA0018E6CE3EF618E6CD3DF618E6CC3CF622FA
:00000001FF
