:040258007F017E00A4
:0B025C00EF1FAC0670011E4C70F62274
:09027300D288D2A8D2AFD2B22287
:10024800120273E4F524E524B445FB1200F380F6AA
:03000300020006F2
:10000600C0E0C0D075D000C000C002C003C004C0AC
:0500160005C006C00753
:10001B007521007FBC7E0212025C30B2030200E04D
:10002B007BE87A0320B215D3EB9400EA64809480CA
:10003B00400A120258EB1B70EB1A80E820B2030245
:10004B0000E07A017BF430B215D3EB9400EA6480C4
:10005B009480400A120258EB1B70EB1A80E8E4FD07
:10006B007508007A007B3C20B215D3EB9400EA6450
:10007B00809480400A120258EB1B70EB1A80E87ACE
:10008B00017BF430B222D3EB9400EA64809480407D
:10009B00177F0A7E0012025C0521EB1B70011AE52B
:1000AB0021D3941E40DD802D74222DF8C000E6C3B1
:1000BB0013D000F6E521C39408400874222DF8E60E
:1000CB004480F67521000508E508C3940840940D9B
:0500DB00ED6404708BD0
:1000E000D007D006D005D004D003D002D000D0D0A5
:0300F000D0E0322B
:08022A00AF0CAE0BAD0AAC09EC
:100232008F208E1F8D1E8C1D781D74FF12020CECF8
:060242004D4E4F70F32247
:0801A4008F188E178D168C15C3
:1001AC00E4F51CF51BF51AF519AF18AE17AD16AC26
:1001BC0015AB1CAA1BA91AA819C31201F45028B21A
:1001CC00957F0A7E007D007C00120232E4FAF9F879
:1001DC00E51C2401F51CEA351BF51BE9351AF51A4B
:0701EC00E83519F51980C286
:0101F30022E9
:1000F300E4750CB8750B0BF50AF509751064F50F6B
:10010300F50EF50D75142C751301F512F511C3E5F4
:100113000C9510F50CE50B950FF50BE50A950EF50F
:100123000AE509950DF50975A0FE12022AE4FBAF55
:10013300A07801EF08800123D8FDF5A012022A0B55
:10014300BB07EC75A0FFAF14AE13AD12AC111201D7
:10015300A4E47FE87E03FDFCAB0CAA0BA90AA80963
:10016300D31201F4500AE4751028F50FF50EF50DBE
:10017300E47F2C7E01FDFCAB0CAA0BA90AA809D3D2
:100183001201F45089E4F5A0B2957F0AFEFDFC123A
:100193000232B2957F057E007D007C001202328020
:0101A300E477
:0300000002026792
:0C026700787FE4F6D8FD75812F02024874
:1001F400EB9FF5F0EA9E42F0E99D42F0EC6480C882
:0602040064809845F02221
:10020A007401FF3395E0FEFDFC080808E6CF2FF6DF
:10021A0018E6CE3EF618E6CD3DF618E6CC3CF622B8
:00000001FF
