:0402CC007F887E1396
:0B02D000EF1FAC0670011E4C70F62200
:06029B00B2A27F327E00DA
:0B02A100EF1FAC0670011E4C70F6222F
:09031B00D288D2A8D2AFD2B222DE
:07032D00D28AD2AAD2AF224E
:10010F00E4F52175225A7523B41202AC12031B12A7
:10011F00032DE4F50CE50CB4461BE52170047F01BB
:10012F0080027F008F21850C20B296E4F50C7F5062
:10013F007EC31202A1E50C64187019E5217007AD9A
:10014F0022AF221202DBE521B40107AD23AF231248
:10015F0002DB805AE50CB40819E5217007AD22AF18
:10016F00221202E8E521B40107AD23AF231202E802
:10017F008050E50C645A7019E5217007AD22AF224B
:10018F001202F5E521B40107AD23AF231202F5806A
:10019F001DE50C641C7020E5217007AD22AF221203
:1001AF000302E521B40107AD23AF23120302850C2F
:1001BF00201202CC020124E50CB4450C12032412C8
:1001CF0002CC850C20020124E50C64476003020178
:1001DF0024C2B31202CCD2B3B297E4F50C020124BD
:03001300020246A0
:10024600C0E0C083C082C0D075D000C000C002C06C
:0702560003C004C006C0074D
:10025D007B2C7A017FE87E031202A120B31B900054
:10026D0000C3E5829BEA6480F8E5836480985009B9
:09027D0012029B12029BA380E80F
:10028600D007D006D004D003D002D000D0D0D08280
:05029600D083D0E0322E
:0D02DB008F198D18D294C293C292D2912235
:0D02E8008F198D18C294D293C292D2912228
:0D02F5008F198D18D292C291D294C293221B
:09032400C294C293C292C291225C
:0D0302008F198D18D292C291C294D293220D
:1001EF00E519D394C840037519C8E519C39446504F
:1001FF0003751946E518D394C840037518C8E51858
:10020F00C394465003751846E508D395195004D288
:10021F00958002C295E508C394C84003E4F508E54C
:10022F001AD395185004D2908002C290E51AC39445
:07023F00C84003E4F51A2298
:1002AC00438902758CA4758AA4D28CD2A9D2AF22B0
:03000B000202BC32
:1002BC00C0E0C0D00508051A1201EFD0D0D0E03252
:03000300020016E2
:10001600C0E0C0D075D000C000C002C003C004C09C
:0500260005C006C00743
:10002B007509007FBC7E021202D030B2030200FCC5
:10003B007BE87A0320B219D3EB9400EA64809480B6
:10004B00400E7F017E001202D0EB1B70E71A80E49A
:10005B0020B2030200FC7A017BF430B219D3EB948B
:10006B0000EA64809480400E7F017E001202D0EB88
:10007B001B70E71A80E4E4FD751B007A007B3C20C3
:10008B00B219D3EB9400EA64809480400E7F017E1A
:10009B00001202D0EB1B70E71A80E47A017BF4307C
:1000AB00B222D3EB9400EA6480948040177F0A7EDF
:1000BB00001202D00509EB1B70011AE509D3941E3F
:1000CB0040DD802D740A2DF8C000E6C313D000F676
:1000DB00E509C394084008740A2DF8E64480F675C8
:1000EB000900051BE51BC3940840900DED640470DB
:0100FB00877D
:1000FC00D007D006D005D004D003D002D000D0D089
:03010C00D0E0320E
:0300000002030FE9
:0C030F00787FE4F6D8FD75812302010F11
:00000001FF
