:1001620011253F065B4F666D7D077F6F00777C39F7
:100172005E7971111400065B4F666D7D077F6F001B
:10018200777C395E7971080A0000000000000000E7
:0B01A300EF1FAC0670011E4C70F6222E
:10019300438901758CFC758A18D2A9D2AFD28C22FF
:10000E00120193E4F512F513F536E4FBFAEA705398
:10001E00EBB40800504D90002BF8282873020043D3
:10002E0002004702004F02005302005B02005F0213
:10003E00006702006BC2A28002D2A2C2A3C2A48039
:10004E0022C2A28002D2A2D2A3C2A48016C2A280D1
:10005E0002D2A2C2A3D2A4800AC2A28002D2A2D28B
:10006E00A3D2A474252512F8E6F50A74142513F804
:10007E00E6F50B740A2BF8E6F5807F647E0012011C
:10008E00A3E4F5800BBB00010AEB64084A6003028F
:05009E00001B02001828
:03000B0002012FC0
:04012F00C0E0C0D09C
:10013300758CFC758A180509E50970020508E51236
:10014300B40A057512000513E509B4E80DE508B412
:0A0153000308750800750900051285
:05015D00D0D0D0E0321B
:030000000200A358
:0C00A300787FE4F6D8FD7581360200EA93
:1000AF0002000EE493A3F8E493A34003F68001F259
:1000BF0008DFF48029E493A3F85407240CC8C33352
:1000CF00C4540F4420C8834004F456800146F6DF21
:1000DF00E4800B0102040810204080900162E47E4E
:1000EF00019360BCA3FF543F30E509541FFEE49316
:1000FF00A360010ECF54C025E060A840B8E493A3DD
:10010F00FAE493A3F8E493A3C8C582C8CAC583CA07
:10011F00F0A3C8C582C8CAC583CADFE9DEE780BEBF
:01019200006C
:00000001FF
