:10032D00100C065B4F00666D7D40077F6F003F0030
:02033D000012AC
:1002A600E50A25E025E0240C250BF8E6F5807FF429
:0C02B6007E011202F375900F7FF47E01B0
:0B02C200EF1FAC0670011E4C70F6220E
:0402F300AB07AA06A5
:1002F700900000D3E5829BE5839A500CB2957F244A
:080307007E001202C2A380EB8C
:01030F0022CB
:04031000AB07AA0687
:10031400900000D3E5829BE5839A500CB2957F331D
:080324007E001202C2A380EB6F
:01032C0022AE
:10000300E4F52175900FE590640F70030201137FEF
:10001300E87E031202C2E590640F700302011375B8
:10002300900FAF90EF24F5601024FE60111460135D
:1000330024077012E4F50B800D750B018008750B16
:10004300028003750B037590F0AF90EF245060119D
:1000530024E0601224F0601324707012E4F50A8027
:100063000D750A018008750A028003750A03E521EC
:10007300C394325011E59064F0600B7FE87E031265
:1000830002C2052180E8E4F51FE4F520E50A25E036
:1000930025E0240C250BF8E61202CD00C60600E489
:1000A3000700FD1200F33F00F84000D04F00CB5B88
:1000B30000D56600DA6D00EE6F00DF7D00E97F009A
:1000C3000001007509018035750902803075090347
:1000D300802B750904802675090580217509068022
:1000E3001C75090780177509088012750909800DA9
:1000F300E4F509800875092D800375093D0520E5A0
:100103002064047087051FE51F6404600302008CEC
:0301130075900FD5
:0101160022C6
:10011700C2A2C2A3C2A4E4F5801202BBE590640F99
:1001270060FA12000385091C1202A6E590640F60AD
:10013700FA120003A9091202A6E590640F60FA12E9
:100147000003AD091202A6E9642D70C4C3E51C9D26
:10015700FFB40A005073900164F82828730201CA9B
:1001670002018202018A02019202019A0201A2029D
:1001770001AA0201B20201BA0201C2751D00751E71
:10018700068046751D00751E5B803E751D00751E39
:100197004F8036751D00751E66802E751D00751EF5
:1001A7006D8026751D00751E7D801E751D00751ED0
:1001B700078016751D00751E7F800E751D00751E44
:1001C7006F8006751D00751E3F7F507EC31202C2E9
:1001D700E590640F60FA120003E509B43DFB851E44
:1001E700807FF47E011202F37F507EC31202C27F2A
:1001F700507EC31202C27F507EC31202C212000396
:10020700E590640F60FAE4F5907FF47E0112031025
:03021700020117CA
:0300000002021ADF
:0C021A00787FE4F6D8FD758121020261B6
:1002CD00D083D082F8E4937012740193700DA3A3C0
:1002DD0093F8740193F5828883E4737402936860D4
:0602ED00EFA3A3A380DFD4
:10022600020117E493A3F8E493A34003F68001F2D6
:1002360008DFF48029E493A3F85407240CC8C333D9
:10024600C4540F4420C8834004F456800146F6DFA8
:10025600E4800B010204081020408090032DE47E08
:10026600019360BCA3FF543F30E509541FFEE4939D
:10027600A360010ECF54C025E060A840B8E493A364
:10028600FAE493A3F8E493A3C8C582C8CAC583CA8F
:10029600F0A3C8C582C8CAC583CADFE9DEE780BE47
:01033F0000BD
:00000001FF
