:1001DB0008183C42998199423C0008083C428981AD
:1001EB0089423C0008103C42818181423C0008203E
:0801FB007FBFDFEFF7FBFDFE03
:0B020400EF1FAC0670011E4C70F622CC
:10019C0074202DF8E6F58074082DF8E6FF1201B5F1
:0901AC007F647E00120204E4FFEE
:1001B500C2B6C2B5E4FEEFC4131313540124FF9273
:1001C500B4EF25E0FFD2B60000C2B60EBE08E7D2F6
:0501D500B50000C2B5F9
:0101DA002202
:1000030075807F7B327A00E4FD74202DF8E6F5805D
:1000130074181201A50DBD08F0EB1B70011AEB64F7
:10002300014A70E37A007B04E4FD12019C0DBD08D4
:10003300F9EB1B70011AEB64014A70EC7A007B0840
:10004300E4FD74202DF8E6F58074101201A50DBDB2
:1000530008F0EB1B70011AEB64014A70E37A007B32
:1000630004E4FD12019C0DBD08F9EB1B70011AEBB2
:1000730064014A70EC7A007B06E4FD74202DF8E6F7
:10008300F58074181201A50DBD08F0EB1B70011A61
:10009300EB64014A70E37A007B04E4FD12019C0DDA
:1000A300BD08F9EB1B70011AEB64014A70EC7A008E
:1000B3007B08E4FD74202DF8E6F58074101201A589
:1000C3000DBD08F0EB1B70011AEB64014A70E37A73
:1000D300007B04E4FD12019C0DBD08F9EB1B7001CC
:1000E3001AEB64014A70EC7A007B64EB64014A709A
:1000F30003020003E4FD74202DF8E6F58074181262
:0D01030001A50DBD08F0EB1B70E11A80DEB8
:03000000020110EA
:0C011000787FE4F6D8FD758127020157C6
:10011C00020003E493A3F8E493A34003F68001F2F6
:10012C0008DFF48029E493A3F85407240CC8C333E4
:10013C00C4540F4420C8834004F456800146F6DFB3
:10014C00E4800B01020408102040809001DBE47E67
:10015C00019360BCA3FF543F30E509541FFEE493A8
:10016C00A360010ECF54C025E060A840B8E493A36F
:10017C00FAE493A3F8E493A3C8C582C8CAC583CA9A
:10018C00F0A3C8C582C8CAC583CADFE9DEE780BE52
:0102030000FA
:00000001FF
